:100000000C9462000C948A000C948A000C948A0070
:100010000C948A000C948A000C948A000C9432038D
:100020000C948A000C948A000C948A000C948A0028
:100030000C948A000C948A000C948A000C948A0018
:100040000C9407050C948A000C948A000C948A0086
:100050000C948A000C948A000C948A000C948A00F8
:100060000C948A000C948A000000000023002600F3
:10007000290000000008000201000003040700003E
:1000800000000000000000000000250028002B00F8
:1000900000000000240027002A00040404040404D3
:1000A0000404020202020202030303030303010227
:1000B00004081020408001020408102001020408F6
:1000C0001020CF0B11241FBECFEFD8E0DEBFCDBF75
:1000D00011E0A0E0B1E0EAECF0E202C005900D9280
:1000E000AA30B107D9F724E0AAE0B1E001C01D921F
:1000F000AC37B207E1F710E0C2E6D0E004C02197C8
:10010000FE010E943C0FC136D107C9F70E9451057C
:100110000C9463100C9400009C01CB01A901415088
:10012000510946305105B8F4E0918E03F0918F03E8
:1001300068E270E00E94DD0E0480F581E02D3097CA
:1001400061F04081518124173507B1F74281538115
:100150008417950789F780E0089581E00895FF925C
:100160000F931F93CF93DF9304E010E08EE7F82EF8
:10017000CEE0D1E0FE0187E090E020E030E0419168
:100180005191082E02C0440F551F0A94E2F7240F24
:10019000351F0197A0F72BB90E943004609683E0C9
:1001A000CE38D80739F7CCE3D0E0FBB80E94300452
:1001B0002197D9F701501109D9F6DF91CF911F91FD
:1001C0000F91FF90089580E892E0EEE0F1E0DF010A
:1001D0009C011D9221503040E1F79F014EE853E011
:1001E00081E090E0978786879183808370964E1791
:1001F0005F07C1F7E0918E03F0918F03A481B58171
:1002000041E050E01097C9F01296ED91FC911397E0
:100210008D919C91119763E0EE0FFF1F6A95E1F7B6
:10022000E80FF91FEE0FFF1FE25FFE4F518340837F
:1002300014960D90BC91A02DE5CFE0910C01F091AA
:100240000D0183E0EE0FFF1F8A95E1F780910A010F
:1002500090910B01E80FF91FEE0FFF1FE25FFE4FB9
:1002600081E090E091838083F90188E090E041E0B3
:1002700050E060817181672B11F040E050E04193C4
:1002800051930197A1F7205F3F4F83E02E38380745
:1002900059F708950F931F93CF93DF93C6E0D0E0F3
:1002A00008E210E00E94210C0496BE010E94DD0EBF
:1002B000019690930B0180930A010E94210CB801D2
:1002C0000E94DD0E9C0190930D0180930C01E09142
:1002D0008E03F0918F030480F581E02D40910A0197
:1002E00050910B013097A1F080819181841795077F
:1002F00041F491E0628173816217730719F490E011
:1003000001C091E00480F581E02D9111EBCFCACFBF
:10031000DF91CF911F910F9108950F931F93CF936A
:10032000DF9300910A0110910B010817190741F59D
:10033000CB0168E270E00E94DD0EEC0180910C01BF
:1003400090910D01C817D907D9F486E090E00E947A
:10035000420FFC01A0918E03B0918F0314968D91F2
:100360009C911597958384831596FC93EE9314972F
:1003700011830083D383C2830E944A0181E001C0BC
:1003800080E0DF91CF911F910F9108950F931F93FC
:10039000CF93DF93E0918E03F0918F030480F5817A
:1003A000E02DC281D381219600811181BE01C80157
:1003B0000E948C00882389F1BE01C8010E948D0132
:1003C00081112BC0C0918E03D0918F03DE01149652
:1003D000ED91FC91159784819581892B11F0DF01B6
:1003E000F6CF8C819D8195838483FD83EC83159664
:1003F0001C921E921497A481B5818D919C911197A6
:100400009183808312968D919C911397899668E2CF
:1004100070E00E94DD0E93838283DF91CF911F9164
:100420000F9108950F931F93CF93DF93E0918E0365
:10043000F0918F030480F581E02DC281D381219753
:1004400000811181BE01C8010E948C00882389F1BE
:10045000BE01C8010E948D0181112BC0C0918E0385
:10046000D0918F03DE011496ED91FC911597848154
:100470009581892B11F0DF01F6CF8C819D819583C9
:100480008483FD83EC8315961C921E921497A4819D
:10049000B5818D919C9111979183808312968D9156
:1004A0009C911397879668E270E00E94DD0E93831B
:1004B0008283DF91CF911F910F9108950F931F9326
:1004C000CF93DF93E0918E03F0918F030480F58149
:1004D000E02D02811381C081D1812196B801CE0126
:1004E0000E948C00882369F1B801CE010E948D0121
:1004F000811127C0C0918E03D0918F03DE01149625
:10050000ED91FC91159784819581892B11F0DF0184
:10051000F6CF8C819D8195838483FD83EC83159632
:100520001C921E921497A481B5818D919C91119774
:1005300001969183808312968D919C91139793835A
:100540008283DF91CF911F910F9108950F931F9395
:10055000CF93DF93E0918E03F0918F030480F581B8
:10056000E02D02811381C081D1812197B801CE0194
:100570000E948C00882369F1B801CE010E948D0190
:10058000811127C0C0918E03D0918F03DE01149694
:10059000ED91FC91159784819581892B11F0DF01F4
:1005A000F6CF8C819D8195838483FD83EC831596A2
:1005B0001C921E921497A481B5818D919C911197E4
:1005C00001979183808312968D919C9113979383C9
:1005D0008283DF91CF911F910F910895CF92DF9287
:1005E000EF92FF92CF93DF93EC01072E000C880B64
:1005F000990B0E94B00D6B017C0120E030E040E4DB
:100600005FE30E94600E20E030E048E452E40E9484
:10061000060D0E94780DC617D707D4F020E030E011
:1006200040EA5FE3C701B6010E94600E20E030E0BF
:1006300048E452E40E94060D20E030E040E85FE329
:100640000E94950C0E94780D21E06C177D070CF438
:1006500020E0822F90E0DF91CF91FF90EF90DF902C
:10066000CF9008951F920F920FB60F9211242F93DF
:100670003F938F939F93AF93BF93EF93FF9380919B
:10068000900390E0FC01EE58FF4F2491FC01E255ED
:10069000FF4F3491FC01E656FF4FE491EE23A1F1A8
:1006A000222339F1233091F038F42130A9F022309F
:1006B00001F584B58F7D12C0273091F02830A1F06C
:1006C0002430B9F4809180008F7D03C08091800038
:1006D0008F77809380000DC084B58F7784BD09C06B
:1006E0008091B0008F7703C08091B0008F7D8093A0
:1006F000B000F0E0EE0FFF1FE859FF4FA591B49155
:10070000EC91E32381E009F480E0209193033091A0
:1007100094032F5F3F4F3093940320939303909162
:100720005D04943618F095E09093910390919103B5
:100730009330B9F018F4923039F057C0943059F131
:10074000953009F44CC051C081114FC020919303E2
:10075000309194032436310508F443C010925D04AF
:100760001CC0813009F041C0E0915D0491E09E0F12
:1007700090935D04F0E02091930330919403EE0F89
:10078000FF1FE057FC4F368325831092940310928D
:10079000930394E021C0811117C0E0915D0491E0C2
:1007A0009E0F90935D04F0E02091930330919403A9
:1007B000EE0FFF1FE057FC4F368325831092940302
:1007C0001092930393E008C0209193033091940317
:1007D0002536310550F095E09093910306C08111C4
:1007E00004C0109294031092930390919203992362
:1007F00029F0811102C02D9A01C02D98FF91EF912F
:10080000BF91AF919F918F913F912F910F900FBE0C
:100810000F901F9018953FB7F894809174049091B1
:100820007504A0917604B091770426B5A89B05C005
:100830002F3F19F00196A11DB11D3FBFBA2FA92F5F
:10084000982F8827820F911DA11DB11DBC01CD01DC
:1008500042E0660F771F881F991F4A95D1F70895C8
:100860008F929F92AF92BF92CF92DF92EF92FF92C0
:100870000E940B044B015C0182E0C82ED12CE12CBC
:10088000F12C0E940B04DC01CB0188199909AA09FB
:10089000BB09883E9340A105B10598F321E0C21A37
:1008A000D108E108F10888EE880E83E0981EA11CAB
:1008B000B11CC114D104E104F10419F7FF90EF90C9
:1008C000DF90CF90BF90AF909F908F900895CF937F
:1008D000DF9390E0FC01E255FF4F2491FC01E656C6
:1008E000FF4F84918823C1F090E0880F991FFC018D
:1008F000E057FF4FC591D491FC01EA57FF4FA591F6
:10090000B4919FB7F8948881E22FE0958E23888375
:100910008C91E823EC939FBFDF91CF9108958F9244
:100920009F92AF92BF92CF92DF92EF92FF920F937E
:100930001F93CF93DF93FC0120813181E0916C0400
:10094000F0916D042E173F070CF04FC0F901EE0F28
:10095000FF1FA0916A04B0916B04EA0FFB1FA080F7
:10096000B180217033276901F1E0CF26232B19F4E0
:100970002CE93FEF02C024E630E07A018B01EC0164
:100980004901840E951EB401C5010E94EE02892B17
:1009900099F48E0C9F1CB401C5010E94EE02892BB4
:1009A00071F4B701680D791DC5010E94EE02892B13
:1009B000F9F023E030E005C021E030E002C022E0A1
:1009C00030E0F801808191810196821793071CF431
:1009D0009183808308C0F8011182108288819981F7
:1009E000019699838883C60105C081E090E002C02A
:1009F0008FEF9FEFDF91CF911F910F91FF90EF90BD
:100A0000DF90CF90BF90AF909F908F9008951F92EE
:100A10000F920FB60F9211242F933F938F939F93B2
:100A2000AF93BF938091700490917104A091720470
:100A3000B091730430916F0423E0230F2D3720F41D
:100A40000196A11DB11D05C026E8230F0296A11D28
:100A5000B11D20936F048093700490937104A09350
:100A60007204B09373048091740490917504A09102
:100A70007604B09177040196A11DB11D8093740492
:100A800090937504A0937604B0937704BF91AF91CF
:100A90009F918F913F912F910F900FBE0F901F90BC
:100AA0001895CF93DF93CDB7DEB72C970FB6F89498
:100AB000DEBF0FBECDBF789484B5826084BD84B59F
:100AC000816084BD85B5826085BD85B5816085BD49
:100AD00080916E00816080936E0010928100809101
:100AE0008100826080938100809181008160809389
:100AF0008100809180008160809380008091B100AE
:100B000084608093B1008091B00081608093B000D8
:100B100080917A00846080937A0080917A0082606C
:100B200080937A0080917A00816080937A0080912E
:100B30007A00806880937A001092C1008BE00E9456
:100B40006704F89482E08093B0008093B10094E64B
:100B50009093B3001092B2008093700078948093C9
:100B6000910310925D04809190030E9467048FEFBF
:100B70008AB986E090E00E94420F98878F83909315
:100B80008F0380938E0386E090E00E94420F5C0109
:100B900086E090E00E94420F6C0186E090E00E94A7
:100BA000420F7C0186E090E00E94420F8C0186E0BB
:100BB00090E00E94420F3C0186E090E00E94420FCC
:100BC0002C0186E090E00E94420F1C0186E090E03C
:100BD0000E94420F9E838D8386E090E00E94420F28
:100BE0004C0186E090E00E94420FFC01AF81B88585
:100BF0001596BC92AE92149721E030E0D501119683
:100C00003C932E9389E090E013969C938E931297D9
:100C10001596DC92CE921497D60111963C932E93A2
:100C200088E090E013969C938E9312971596FC9211
:100C3000EE921497D70111963C932E9387E090E0A3
:100C400013969C938E93129715961C930E9314975C
:100C5000D80111963C932E9316E0E12EF12C1396B9
:100C6000FC92EE92129715967C926E921497D30195
:100C700011963C932E9385E090E013969C938E936F
:100C8000129715965C924E921497D20111963C934E
:100C90002E9384E090E013969C938E931297159672
:100CA0003C922E921497D10111963C932E9383E09F
:100CB00090E013969C938E9312978D819E8115964A
:100CC0009C938E931497DC0111963C932E9382E0B3
:100CD00090E013969C938E93129715969C928E9209
:100CE0001497D40111963C932E9313963C932E9314
:100CF00012971596FC93EE931497318320831382F9
:100D00001282158214820E944A010E94E3000E940E
:100D1000AF00F0925F04E0925E0444244A94542CA5
:100D2000320122242394312CE5E9F3E0F0936B04A3
:100D3000E0936A0480915D0490E090936D04809349
:100D40006C0480919103853009F0F1C08091970384
:100D500090919803885891098D35910588F4809178
:100D60005D04843041F48091990390919A038097B7
:100D7000479708F42FC180915D04843408F011C1B5
:100D800080915D048A3108F48DC180919503909122
:100D90009603843F914098F410926904109268047D
:100DA00040926404509265046092660470926704F5
:100DB00089E090E0909361048093600462C0809128
:100DC00097039091980385974B9708F06BC1EBE9D7
:100DD000F3E082E090E0C12CD12C760120915D04FB
:100DE00030E0AC014F5F5F4F4217530754F4DF010F
:100DF00012972D913C91275031092730310508F485
:100E000035C10197959587959093690480936804FF
:100E10000C972CF4109269041092680443C1C0929C
:100E20006404D0926504E0926604F092670482E064
:100E300090E00AC0C0926404D0926504E092660417
:100E4000F092670489E090E09093610480936004DD
:100E50008091640490916504A0916604B091670448
:100E6000873E9841AF4FB10561F422E030E0309306
:100E70005F0420935E040E94A6020E94E3000E9489
:100E8000AF008091640490916504A0916604B091D4
:100E90006704853B9A44AF4FB10561F488E090E068
:100EA00090935F0480935E040E945E020E94E300C0
:100EB0000E94AF008091640490916504A091660443
:100EC000B09167048F3E9041AF4FB10561F424E0CB
:100ED00030E030935F0420935E040E9412020E946F
:100EE000E3000E94AF008091640490916504A0919A
:100EF0006604B0916704853A9A45AF4FB10561F435
:100F000086E090E090935F0480935E040E94C601A7
:100F10000E94E3000E94AF0082E080939103109250
:100F20005D0435C082E08093910310925D0480914E
:100F30005E0490915F04029731F40E94A6020E9421
:100F4000E3000E94AF0080915E0490915F040897D7
:100F500031F40E945E020E94E3000E94AF00809183
:100F60005E0490915F04049731F40E9412020E9483
:100F7000E3000E94AF0080915E0490915F040697A9
:100F800031F40E94C6010E94E3000E94AF000E945B
:100F9000AF0080E090E0892B09F4C6CE0E940000EB
:100FA000C0CE8091990390919A03825491098E97B3
:100FB00008F0E6CE80E090E040E050E0BA01FC01AD
:100FC000E556FC4F20813181295031092930310506
:100FD000D0F0D6CE80919B0390919C0309970997FE
:100FE00008F0C9CE1092690410926804409264041B
:100FF00050926504609266047092670430926104B6
:10100000209260043ECFFC01E356FC4F20813181E9
:101010002651310921313105E0F4440F551F661F77
:10102000771F416004968038910549F620E230E050
:1010300030936904209368044093640450936504DA
:101040006093660470936704309261042092600498
:10105000FFCE20813181265031092730310508F03B
:101060008FCE440F551F661F771FDCCF2081318143
:10107000235131092F30310548F4CC0CDD1CEE1C16
:10108000FF1C6894C0F802963496A8CE2081318166
:101090002A5031092930310528F4CC0CDD1CEE1C16
:1010A000FF1CF1CF80915D048A3108F45CC080910F
:1010B0009503909196038032934008F46DCE809111
:1010C000970390919803C697869708F04CC080913B
:1010D000990390919A03C697869708F044C0EDE96A
:1010E000F3E083E090E0C12CD12C760120915D04E7
:1010F00030E0AC014F5F5F4F421753074CF4DF0104
:1011000012972D913C912C5031092B30310578F0FC
:1011100001979595879590936904809368040C973F
:101120000CF088CE10926904109268041CC02081D3
:101130003181255231092B31310548F4CC0CDD1CAD
:10114000EE1CFF1C6894C0F802963496CFCF208125
:1011500031812C5031092A30310528F4CC0CDD1CAA
:10116000EE1CFF1CF1CF80915D04823208F458C060
:1011700080919703909198030697079708F050C0C5
:10118000EBE9F3E082E090E0C12CD12C76019C01E8
:101190002F5F3F4F40915D0450E024173507CCF49A
:1011A000DF0112974D915C9111974E5151094731D2
:1011B000510540F5CC0CDD1CEE1CFF1C6894C0F8FA
:1011C000408151813496435051094530510530F1E9
:1011D000C901019795958795909369048093680458
:1011E00040972CF4109269041092680419C0C092C0
:1011F0006404D0926504E0926604F09267048AE089
:1012000090E022CE4D915C914C5051094B305105EC
:1012100038F4CC0CDD1CEE1CFF1CD2CF0296B7CFED
:1012200080915D048D3048F480916C0490916D0440
:10123000181619060CF481C08BC03C822B821A82CE
:10124000198249E753E0BE016F5F7F4FCE010396DD
:101250000E948F04892B21F080E090E0DC0167C0C0
:1012600049E753E0BE016F5F7F4FCE0103960E94B6
:101270008F04019789F749E753E0BE016F5F7F4F05
:10128000CE0103960E948F04892B31F700E010E015
:10129000812C912C540180915D0490E02B813C8144
:1012A0002817390774F549E753E0BE016F5F7F4F98
:1012B000CE0103960E948F047C0149E753E0BE01F2
:1012C0006F5F7F4FCE0103960E948F04B1E0EB1653
:1012D000F10451F4892B09F0BFCF880C991CAA1C8A
:1012E000BB1C689480F80AC0EF2809F0B5CF0197BD
:1012F00009F0B2CF880C991CAA1CBB1C0F5F1F4FB2
:10130000CACF109369040093680480926404909299
:101310006504A0926604B092670483E090E0909325
:1013200061048093600481E090E0A0E0B0E0892B4C
:101330008A2B8B2B09F08CCD77CF3C822B82E091CE
:101340006A04F0916B048281938189974E9720F013
:1013500080E090E0DC014AC0A2E0B0E0BC83AB8357
:10136000848195810B970A9798F783E090E09C839E
:101370008B831A8219824CEB51E0BE016F5F7F4F65
:10138000CE0103960E948F04892B11F74CEB51E09C
:10139000BE016F5F7F4FCE0103960E948F040197BD
:1013A000B9F600E010E0812C912C540120916C04DE
:1013B00030916D048B819C81821793070CF4FCC0E3
:1013C0001093690400936804809264049092650409
:1013D000A0926604B092670424E030E03093610488
:1013E0002093600481E090E0A0E0B0E0892B8A2B9C
:1013F0008B2B09F02DCDC0906A04D0906B04D601E0
:1014000012968D919C911397C6978697E8F4F601F2
:10141000848195814B974597B8F4D601169676014D
:10142000F6ECEF0EF11C20E030E040E050E060E030
:1014300070E080E090E00D911C9111970950110926
:101440000830110508F409C180915D04823239F435
:10145000F601828193810A97099708F43AC1D6016F
:1014600012968D919C911397895791098335910517
:10147000D8F480915D048132B8F0F60184819581C1
:10148000CA97899788F496012A5F3F4F80E090E0E1
:10149000DC0143E050E0F901608171816A5071091B
:1014A0006930710508F437C120916C0430916D04E6
:1014B00038872F83263031050CF434CD86010E5F3A
:1014C0001F4FB5ECCB2EBDE9DB2EBCE1EB2EB1E816
:1014D000FB2E83E090E09E838D83D80114966D915E
:1014E0007C911597AD90BC9080E090E00E94AE0D8D
:1014F00069877A878B879C87B50180E090E00E949E
:10150000AE0D4B015C012DEC3CEC4CE45FE30E9422
:10151000600E9B01AC0169857A858B859C850E9454
:10152000010D87FD19C02DEC3CEC4CE45FE36985AF
:101530007A858B859C850E94600E9B01AC01C5015C
:10154000B4010E94010DE82F880FFF0BEE27FF0F5B
:10155000EE1FFF27319602C0E0E0F0E0A701960100
:1015600063E971E080E091E00E94CD0E6F01FF0F12
:10157000EE08FF08C626D726E826F926ED81FE816B
:101580003196FE83ED830E5F1F4F2F8138852E1716
:101590003F0709F0A2CFC0926404D0926504E092A4
:1015A0006604F092670480E290E09093690480936F
:1015B00068048FEF9FEF48CC4CEB51E0BE016F5FAA
:1015C0007F4FCE0103960E948F047C0103301105EA
:1015D00071F04CEB51E0BE016F5F7F4FCE0103967F
:1015E0000E948F046C0103301105D9F40DC04CEB3F
:1015F00051E0BE016F5F7F4FCE0103960E948F04C2
:10160000E816F90631F3A4CE4CEB51E0BE016F5F52
:101610007F4FCE0103960E948F04C816D90609F0A9
:1016200097CEE114F10459F4CA94CD2809F090CE74
:10163000880C991CAA1CBB1C689480F80BC0EA9407
:10164000EF2809F085CECD2809F082CE880C991CB0
:10165000AA1CBB1C0F5F1F4FA9CE12960D911C91A7
:101660001397015111090D30110528F501E00E9471
:10167000F10E21601496EA16FB0609F0DCCE2093E9
:10168000640430936504409366045093670400E259
:101690000E940C0F209362043093630487E090E073
:1016A000909361048093600480E390E090936904D8
:1016B00080936804CDCB12960D911C911397045022
:1016C00011090530110508F0BFCE01E00E94F10EAE
:1016D000D1CF20915D04C601820F911D820F911D13
:1016E000DC0112978D919C910A97099708F0B7CE6B
:1016F0001092690410926804409264045092650448
:10170000609266047092670428E030E030936104D0
:1017100020936004B6CBF90162817381665171092F
:101720006131710570F5880F991FAA1FBB1F816079
:101730004E5F5F4F2C5F3F4F4332510509F0ABCEF8
:1017400096012A5B3F4FF901208131812A503109EE
:101750002930310508F0A8CE20E130E0309369044B
:10176000209368048093640490936504A0936604B6
:10177000B093670428E030E0309361042093600464
:1017800067CBF90162817381665071096730710519
:1017900008F08ACE880F991FAA1FBB1FC9CFE0E9A6
:1017A000F3E08BE08083128208958F929F92AF9234
:1017B000BF92CF92DF92EF92FF92CF93DF93EC0133
:1017C000688179818A819B81611571058105910507
:1017D00021F464E279ED8BE597E02DE133EF41E010
:1017E00050E00E94310C49015A019B01AC01A7EA6B
:1017F000B1E40E94500C6B017C01ACEEB4EFA5018A
:1018000094010E945E0CDC01CB018C0D9D1DAE1D70
:10181000BF1DB7FF03C00197A109B0488883998312
:10182000AA83BB839F77DF91CF91FF90EF90DF90EA
:10183000CF90BF90AF909F908F9008950E94D50B4E
:10184000089580E091E00E94D50B0895A0E0B0E0FB
:101850008093000190930101A0930201B0930301D2
:101860000895052E97FB1EF400940E94480C57FD26
:1018700007D00E94630C07FC03D04EF40C94480C74
:1018800050954095309521953F4F4F4F5F4F0895AC
:1018900090958095709561957F4F8F4F9F4F0895DC
:1018A0000E94850CA59F900DB49F900DA49F800D64
:1018B000911D11240895B7FF0C94500C0E94500CF8
:1018C000821B930B0895A1E21A2EAA1BBB1BFD01DC
:1018D0000DC0AA1FBB1FEE1FFF1FA217B307E4070F
:1018E000F50720F0A21BB30BE40BF50B661F771F67
:1018F000881F991F1A9469F7609570958095909547
:101900009B01AC01BD01CF010895A29FB001B39F1F
:10191000C001A39F700D811D1124911DB29F700DF8
:10192000811D1124911D08955058BB27AA270E949C
:10193000AC0C0C94260E0E94180E38F00E941F0E5C
:1019400020F039F49F3F19F426F40C94150E0EF490
:10195000E095E7FB0C940F0EE92F0E94370E58F329
:10196000BA17620773078407950720F079F4A6F584
:101970000C94590E0EF4E0950B2EBA2FA02D0B01EE
:10198000B90190010C01CA01A0011124FF27591BC4
:1019900099F0593F50F4503E68F11A16F040A22FCA
:1019A000232F342F4427585FF3CF4695379527953B
:1019B000A795F0405395C9F77EF41F16BA0B620B3A
:1019C000730B840BBAF09150A1F0FF0FBB1F661F81
:1019D000771F881FC2F70EC0BA0F621F731F841FC4
:1019E00048F4879577956795B795F7959E3F08F0EA
:1019F000B0CF9395880F08F09927EE0F97958795AC
:101A000008950E94EB0D08F481E008950E941A0DDC
:101A10000C94260E0E941F0E58F00E94180E40F0E3
:101A200029F45F3F29F00C940F0E51110C945A0EBB
:101A30000C94150E0E94370E68F39923B1F35523C9
:101A400091F3951B550BBB27AA27621773078407D1
:101A500038F09F5F5F4F220F331F441FAA1FA9F367
:101A600035D00E2E3AF0E0E832D091505040E69555
:101A7000001CCAF72BD0FE2F29D0660F771F881FB6
:101A8000BB1F261737074807AB07B0E809F0BB0BA9
:101A9000802DBF01FF2793585F4F3AF09E3F5105BD
:101AA00078F00C940F0E0C945A0E5F3FE4F3983EBE
:101AB000D4F3869577956795B795F7959F5FC9F7A6
:101AC000880F911D9695879597F90895E1E0660F27
:101AD000771F881FBB1F621773078407BA0720F0A0
:101AE000621B730B840BBA0BEE1F88F7E095089509
:101AF0000E947F0D6894B1110C945A0E08950E94B3
:101B00003F0E88F09F5798F0B92F9927B751B0F042
:101B1000E1F0660F771F881F991F1AF0BA95C9F771
:101B200014C0B13091F00E94590EB1E008950C94A8
:101B3000590E672F782F8827B85F39F0B93FCCF35B
:101B4000869577956795B395D9F73EF490958095EE
:101B5000709561957F4F8F4F9F4F0895E89409C00E
:101B600097FB3EF490958095709561957F4F8F4FD0
:101B70009F4F9923A9F0F92F96E9BB279395F695E6
:101B8000879577956795B795F111F8CFFAF4BB0F64
:101B900011F460FF1BC06F5F7F4F8F4F9F4F16C0C8
:101BA000882311F096E911C0772321F09EE8872F52
:101BB000762F05C0662371F096E8862F70E060E00E
:101BC0002AF09A95660F771F881FDAF7880F969587
:101BD000879597F90895990F0008550FAA0BE0E82B
:101BE000FEEF16161706E807F907C0F012161306DF
:101BF000E407F50798F0621B730B840B950B39F41F
:101C00000A2661F0232B242B252B21F408950A2684
:101C100009F4A140A6958FEF811D811D089597F9C4
:101C20009F6780E870E060E008959FEF80EC089582
:101C300000240A94161617061806090608950024AB
:101C40000A9412161306140605060895092E039425
:101C5000000C11F4882352F0BB0F40F4BF2B11F499
:101C600060FF04C06F5F7F4F8F4F9F4F089557FDF8
:101C70009058440F551F59F05F3F71F04795880FFA
:101C800097FB991F61F09F3F79F087950895121691
:101C900013061406551FF2CF4695F1DF08C016163D
:101CA00017061806991FF1CF8695710561050894EE
:101CB0000895E894BB2766277727CB0197F9089505
:101CC0000E94730E0C94260E0E94180E38F00E948B
:101CD0001F0E20F0952311F00C940F0E0C94150E8E
:101CE00011240C945A0E0E94370E70F3959FC1F385
:101CF000950F50E0551F629FF001729FBB27F00DBA
:101D0000B11D639FAA27F00DB11DAA1F649F66270E
:101D1000B00DA11D661F829F2227B00DA11D621F5D
:101D2000739FB00DA11D621F839FA00D611D221F17
:101D3000749F3327A00D611D231F849F600D211DFB
:101D4000822F762F6A2F11249F5750409AF0F1F07E
:101D500088234AF0EE0FFF1FBB1F661F771F881FE7
:101D600091505040A9F79E3F510580F00C940F0E02
:101D70000C945A0E5F3FE4F3983ED4F38695779522
:101D80006795B795F795E7959F5FC1F7FE2B880F8D
:101D9000911D9695879597F90895DB018F939F93F1
:101DA0000E94500CBF91AF91A29F800D911DA39FE7
:101DB000900DB29F900D1124089597FB072E16F4F5
:101DC000009407D077FD09D00E94280F07FC05D0AA
:101DD0003EF4909581959F4F0895709561957F4F42
:101DE00008950F93083090F0982F872F762F652F46
:101DF000542F432F322F22270850F4CF220F331FA6
:101E0000441F551F661F771F881F991F0A95B2F739
:101E10000F91089597FB10F8169400080F9308305F
:101E200098F00850232F342F452F562F672F782FE7
:101E3000892F902DF4CF0594979587957795679581
:101E400057954795379527950A95AAF70F910895C5
:101E5000AA1BBB1B51E107C0AA1FBB1FA617B707D0
:101E600010F0A61BB70B881F991F5A95A9F78095EC
:101E70009095BC01CD010895EE0FFF1F0590F491E0
:101E8000E02D09940F931F93CF93DF938230910538
:101E900010F482E090E0E0917A04F0917B0420E07D
:101EA00030E0A0E0B0E0309719F14081518102812B
:101EB000138148175907C8F08417950769F41097DC
:101EC00031F012960C93129713961C9327C000932F
:101ED0007A0410937B0422C02115310519F04217B2
:101EE000530718F49A01BD01EF01DF01F801DBCFC0
:101EF00021153105F9F0281B390B2430310580F408
:101F00008A819B816115710521F0FB019383828396
:101F100004C090937B0480937A04FE01329644C0FF
:101F2000FE01E20FF31F819391932250310939830F
:101F300028833AC02091780430917904232B41F40E
:101F400020910601309107013093790420937804A1
:101F500020910401309105012115310541F42DB77F
:101F60003EB74091080150910901241B350BE091C7
:101F70007804F0917904E217F307A0F42E1B3F0BCD
:101F80002817390778F0AC014E5F5F4F24173507EB
:101F900048F04E0F5F1F509379044093780481936B
:101FA000919302C0E0E0F0E0CF01DF91CF911F916B
:101FB0000F910895CF93DF93009709F481C0FC013E
:101FC000329713821282A0917A04B0917B04109709
:101FD00081F420813181820F931F20917804309108
:101FE00079042817390751F5F0937904E0937804C0
:101FF00067C0ED0120E030E0CE17DF0740F44A81F2
:102000005B819E0141155105F1F0EA01F5CFD383C3
:10201000C28340815181840F951FC817D90759F495
:1020200088819981840F951F0296918380838A818C
:102030009B81938382832115310529F4F0937B04DE
:10204000E0937A043DC0E901FB83EA834991599109
:10205000C40FD51FEC17FD0761F480819181840FB7
:10206000951F0296E90199838883828193819B83DE
:102070008A83E0E0F0E012968D919C91139700978F
:1020800019F0FD01DC01F7CF8D919C9111979D0115
:102090002E5F3F4F820F931F209178043091790477
:1020A0002817390769F4309729F410927B041092AD
:1020B0007A0402C013821282B0937904A093780448
:0A20C000DF91CF910895F894FFCF4F
:0A20CA000100000000007C0480000B
:00000001FF
